{"abi":[{"type":"constructor","inputs":[],"stateMutability":"nonpayable"},{"type":"function","name":"getAdjustedVolatility","inputs":[],"outputs":[{"name":"","type":"uint256","internalType":"uint256"}],"stateMutability":"view"},{"type":"function","name":"getAttackParameters","inputs":[],"outputs":[{"name":"baseAttackPower","type":"uint256","internalType":"uint256"},{"name":"adjustedVolatility","type":"uint256","internalType":"uint256"},{"name":"overallAttackParameter","type":"uint256","internalType":"uint256"}],"stateMutability":"view"},{"type":"function","name":"getBaseAttackPower","inputs":[],"outputs":[{"name":"","type":"uint256","internalType":"uint256"}],"stateMutability":"view"},{"type":"function","name":"getLatestBtcEthPrice","inputs":[],"outputs":[{"name":"","type":"int256","internalType":"int256"}],"stateMutability":"view"},{"type":"function","name":"getLatestEthPrice","inputs":[],"outputs":[{"name":"","type":"int256","internalType":"int256"}],"stateMutability":"view"},{"type":"function","name":"getLatestEthVolatility","inputs":[],"outputs":[{"name":"","type":"uint256","internalType":"uint256"}],"stateMutability":"view"},{"type":"function","name":"getOverallAttackParameter","inputs":[],"outputs":[{"name":"","type":"uint256","internalType":"uint256"}],"stateMutability":"view"}],"bytecode":{"object":"0x608060405234801561001057600080fd5b50600080546001600160a01b031990811673694aa1769357215de4fac081bf1f309adc325306179091556001805482167331d04174d0e1643963b38d87f26b0675bb7dc96e17905560028054909116735fb1616f78da7afc9ff79e0371741a747d2a7f22179055610480806100866000396000f3fe608060405234801561001057600080fd5b506004361061007d5760003560e01c80638c0512911161005b5780638c051291146100c8578063937b7e46146100d05780639f7538ad146100d8578063d40207bb146100e057600080fd5b80630c9c2cb91461008257806319d22017146100aa57806330c0b9ec146100c0575b600080fd5b61008a6100e8565b604080519384526020840192909252908201526060015b60405180910390f35b6100b2610110565b6040519081526020016100a1565b6100b26101b9565b6100b261022d565b6100b2610262565b6100b2610283565b6100b26102fd565b60008060006100f5610262565b92506100ff61022d565b9150610109610283565b9050909192565b600080600080600080600160009054906101000a900473ffffffffffffffffffffffffffffffffffffffff1673ffffffffffffffffffffffffffffffffffffffff1663feaf968c6040518163ffffffff1660e01b815260040160a060405180830381865afa158015610186573d6000803e3d6000fd5b505050506040513d601f19601f820116820180604052508101906101aa9190610392565b50919998505050505050505050565b60008060008060008060008054906101000a900473ffffffffffffffffffffffffffffffffffffffff1673ffffffffffffffffffffffffffffffffffffffff1663feaf968c6040518163ffffffff1660e01b815260040160a060405180830381865afa158015610186573d6000803e3d6000fd5b600080610238610110565b905060006102486103e883610411565b9050603281111561025c5760329250505090565b92915050565b60008061026d6101b9565b905061027d6305f5e10082610411565b91505090565b60008061028e6102fd565b90506000816040516020016102a591815260200190565b604080517fffffffffffffffffffffffffffffffffffffffffffffffffffffffffffffffe08184030181529190528051602090910120905060006102ea604783610425565b6102f5906032610439565b949350505050565b600080600080600080600260009054906101000a900473ffffffffffffffffffffffffffffffffffffffff1673ffffffffffffffffffffffffffffffffffffffff1663feaf968c6040518163ffffffff1660e01b815260040160a060405180830381865afa158015610186573d6000803e3d6000fd5b805169ffffffffffffffffffff8116811461038d57600080fd5b919050565b600080600080600060a086880312156103aa57600080fd5b6103b386610373565b94506020860151935060408601519250606086015191506103d660808701610373565b90509295509295909350565b7f4e487b7100000000000000000000000000000000000000000000000000000000600052601260045260246000fd5b600082610420576104206103e2565b500490565b600082610434576104346103e2565b500690565b8082018082111561025c577f4e487b7100000000000000000000000000000000000000000000000000000000600052601160045260246000fdfea164736f6c6343000817000a","linkReferences":{}},"methodIdentifiers":{"getAdjustedVolatility()":"8c051291","getAttackParameters()":"0c9c2cb9","getBaseAttackPower()":"937b7e46","getLatestBtcEthPrice()":"d40207bb","getLatestEthPrice()":"30c0b9ec","getLatestEthVolatility()":"19d22017","getOverallAttackParameter()":"9f7538ad"},"storageLayout":{"storage":[{"astId":56014,"contract":"src/BossStats.sol:BossStats","label":"ethPriceFeed","offset":0,"slot":"0","type":"t_contract(AggregatorV3Interface)13225"},{"astId":56017,"contract":"src/BossStats.sol:BossStats","label":"ethVolatilityFeed","offset":0,"slot":"1","type":"t_contract(AggregatorV3Interface)13225"},{"astId":56020,"contract":"src/BossStats.sol:BossStats","label":"btcEthPriceFeed","offset":0,"slot":"2","type":"t_contract(AggregatorV3Interface)13225"}],"types":{"t_contract(AggregatorV3Interface)13225":{"encoding":"inplace","label":"contract AggregatorV3Interface","numberOfBytes":"20"}}},"id":62}