{"abi":[{"type":"constructor","inputs":[{"name":"ownerAddress_","type":"address","internalType":"address"},{"name":"signer_","type":"address","internalType":"address"}],"stateMutability":"nonpayable"},{"type":"receive","stateMutability":"payable"},{"type":"function","name":"HP_INCREMENT_PER_MINT","inputs":[],"outputs":[{"name":"","type":"uint256","internalType":"uint256"}],"stateMutability":"view"},{"type":"function","name":"INITIAL_BOSS_HP","inputs":[],"outputs":[{"name":"","type":"uint256","internalType":"uint256"}],"stateMutability":"view"},{"type":"function","name":"MINT_TYPEHASH","inputs":[],"outputs":[{"name":"","type":"bytes32","internalType":"bytes32"}],"stateMutability":"view"},{"type":"function","name":"accumulatedETH","inputs":[],"outputs":[{"name":"","type":"uint256","internalType":"uint256"}],"stateMutability":"view"},{"type":"function","name":"approve","inputs":[{"name":"to","type":"address","internalType":"address"},{"name":"tokenId","type":"uint256","internalType":"uint256"}],"outputs":[],"stateMutability":"nonpayable"},{"type":"function","name":"balanceOf","inputs":[{"name":"owner","type":"address","internalType":"address"}],"outputs":[{"name":"","type":"uint256","internalType":"uint256"}],"stateMutability":"view"},{"type":"function","name":"bossHP","inputs":[],"outputs":[{"name":"","type":"uint256","internalType":"uint256"}],"stateMutability":"view"},{"type":"function","name":"cancelOwnershipHandover","inputs":[],"outputs":[],"stateMutability":"payable"},{"type":"function","name":"chestKey","inputs":[],"outputs":[{"name":"","type":"uint256","internalType":"uint256"}],"stateMutability":"view"},{"type":"function","name":"chestOwner","inputs":[],"outputs":[{"name":"","type":"address","internalType":"address"}],"stateMutability":"view"},{"type":"function","name":"cleared","inputs":[{"name":"","type":"address","internalType":"address"},{"name":"gameRound","type":"uint256","internalType":"uint256"}],"outputs":[{"name":"","type":"bool","internalType":"bool"}],"stateMutability":"view"},{"type":"function","name":"completeOwnershipHandover","inputs":[{"name":"pendingOwner","type":"address","internalType":"address"}],"outputs":[],"stateMutability":"payable"},{"type":"function","name":"currentTokenId","inputs":[],"outputs":[{"name":"","type":"uint256","internalType":"uint256"}],"stateMutability":"view"},{"type":"function","name":"eip712Domain","inputs":[],"outputs":[{"name":"fields","type":"bytes1","internalType":"bytes1"},{"name":"name","type":"string","internalType":"string"},{"name":"version","type":"string","internalType":"string"},{"name":"chainId","type":"uint256","internalType":"uint256"},{"name":"verifyingContract","type":"address","internalType":"address"},{"name":"salt","type":"bytes32","internalType":"bytes32"},{"name":"extensions","type":"uint256[]","internalType":"uint256[]"}],"stateMutability":"view"},{"type":"function","name":"gameCleared","inputs":[{"name":"player","type":"address","internalType":"address"},{"name":"_gameRound","type":"uint256","internalType":"uint256"}],"outputs":[{"name":"","type":"bool","internalType":"bool"}],"stateMutability":"view"},{"type":"function","name":"gameDifficulty","inputs":[],"outputs":[{"name":"","type":"uint256","internalType":"uint256"}],"stateMutability":"view"},{"type":"function","name":"gameRound","inputs":[],"outputs":[{"name":"","type":"uint256","internalType":"uint256"}],"stateMutability":"view"},{"type":"function","name":"getApproved","inputs":[{"name":"tokenId","type":"uint256","internalType":"uint256"}],"outputs":[{"name":"","type":"address","internalType":"address"}],"stateMutability":"view"},{"type":"function","name":"getPlayerKeys","inputs":[{"name":"player","type":"address","internalType":"address"}],"outputs":[{"name":"","type":"uint256[]","internalType":"uint256[]"}],"stateMutability":"view"},{"type":"function","name":"getScoreData","inputs":[{"name":"player","type":"address","internalType":"address"},{"name":"_gameRound","type":"uint256","internalType":"uint256"}],"outputs":[{"name":"score","type":"uint256","internalType":"uint256"},{"name":"timestamp","type":"uint256","internalType":"uint256"}],"stateMutability":"view"},{"type":"function","name":"hashTypedData","inputs":[{"name":"structHash","type":"bytes32","internalType":"bytes32"}],"outputs":[{"name":"","type":"bytes32","internalType":"bytes32"}],"stateMutability":"view"},{"type":"function","name":"isApprovedForAll","inputs":[{"name":"owner","type":"address","internalType":"address"},{"name":"operator","type":"address","internalType":"address"}],"outputs":[{"name":"","type":"bool","internalType":"bool"}],"stateMutability":"view"},{"type":"function","name":"mint","inputs":[{"name":"to","type":"address","internalType":"address"},{"name":"score","type":"uint256","internalType":"uint256"},{"name":"sig","type":"bytes","internalType":"bytes"}],"outputs":[],"stateMutability":"payable"},{"type":"function","name":"mintFee","inputs":[],"outputs":[{"name":"","type":"uint256","internalType":"uint256"}],"stateMutability":"view"},{"type":"function","name":"name","inputs":[],"outputs":[{"name":"","type":"string","internalType":"string"}],"stateMutability":"view"},{"type":"function","name":"openChest","inputs":[{"name":"player","type":"address","internalType":"address"}],"outputs":[],"stateMutability":"nonpayable"},{"type":"function","name":"owner","inputs":[],"outputs":[{"name":"result","type":"address","internalType":"address"}],"stateMutability":"view"},{"type":"function","name":"ownerOf","inputs":[{"name":"tokenId","type":"uint256","internalType":"uint256"}],"outputs":[{"name":"","type":"address","internalType":"address"}],"stateMutability":"view"},{"type":"function","name":"ownershipHandoverExpiresAt","inputs":[{"name":"pendingOwner","type":"address","internalType":"address"}],"outputs":[{"name":"result","type":"uint256","internalType":"uint256"}],"stateMutability":"view"},{"type":"function","name":"playerKeys","inputs":[{"name":"","type":"address","internalType":"address"},{"name":"","type":"uint256","internalType":"uint256"}],"outputs":[{"name":"keys","type":"uint256","internalType":"uint256"}],"stateMutability":"view"},{"type":"function","name":"protocolFeeDestination","inputs":[],"outputs":[{"name":"","type":"address","internalType":"address"}],"stateMutability":"view"},{"type":"function","name":"randomId","inputs":[],"outputs":[{"name":"","type":"uint256","internalType":"uint256"}],"stateMutability":"view"},{"type":"function","name":"renounceOwnership","inputs":[],"outputs":[],"stateMutability":"payable"},{"type":"function","name":"requestOwnershipHandover","inputs":[],"outputs":[],"stateMutability":"payable"},{"type":"function","name":"safeTransferFrom","inputs":[{"name":"from","type":"address","internalType":"address"},{"name":"to","type":"address","internalType":"address"},{"name":"tokenId","type":"uint256","internalType":"uint256"}],"outputs":[],"stateMutability":"nonpayable"},{"type":"function","name":"safeTransferFrom","inputs":[{"name":"from","type":"address","internalType":"address"},{"name":"to","type":"address","internalType":"address"},{"name":"tokenId","type":"uint256","internalType":"uint256"},{"name":"data","type":"bytes","internalType":"bytes"}],"outputs":[],"stateMutability":"nonpayable"},{"type":"function","name":"scoreData","inputs":[{"name":"","type":"address","internalType":"address"},{"name":"gameRound","type":"uint256","internalType":"uint256"}],"outputs":[{"name":"score","type":"uint256","internalType":"uint256"},{"name":"timestamp","type":"uint256","internalType":"uint256"}],"stateMutability":"view"},{"type":"function","name":"setApprovalForAll","inputs":[{"name":"operator","type":"address","internalType":"address"},{"name":"approved","type":"bool","internalType":"bool"}],"outputs":[],"stateMutability":"nonpayable"},{"type":"function","name":"setGameDifficulty","inputs":[{"name":"_gameDifficulty","type":"uint256","internalType":"uint256"}],"outputs":[],"stateMutability":"nonpayable"},{"type":"function","name":"setMintFee","inputs":[{"name":"_mintFee","type":"uint256","internalType":"uint256"}],"outputs":[],"stateMutability":"nonpayable"},{"type":"function","name":"setProtocolFeeDestination","inputs":[{"name":"_protocolFeeDestination","type":"address","internalType":"address"}],"outputs":[],"stateMutability":"nonpayable"},{"type":"function","name":"setSigner","inputs":[{"name":"_signer","type":"address","internalType":"address"}],"outputs":[],"stateMutability":"nonpayable"},{"type":"function","name":"signer","inputs":[],"outputs":[{"name":"","type":"address","internalType":"address"}],"stateMutability":"view"},{"type":"function","name":"supportsInterface","inputs":[{"name":"interfaceId","type":"bytes4","internalType":"bytes4"}],"outputs":[{"name":"","type":"bool","internalType":"bool"}],"stateMutability":"view"},{"type":"function","name":"symbol","inputs":[],"outputs":[{"name":"","type":"string","internalType":"string"}],"stateMutability":"view"},{"type":"function","name":"tokenIdtoKey","inputs":[{"name":"","type":"uint256","internalType":"uint256"}],"outputs":[{"name":"","type":"uint256","internalType":"uint256"}],"stateMutability":"view"},{"type":"function","name":"tokenURI","inputs":[{"name":"tokenId","type":"uint256","internalType":"uint256"}],"outputs":[{"name":"","type":"string","internalType":"string"}],"stateMutability":"view"},{"type":"function","name":"transferFrom","inputs":[{"name":"from","type":"address","internalType":"address"},{"name":"to","type":"address","internalType":"address"},{"name":"tokenId","type":"uint256","internalType":"uint256"}],"outputs":[],"stateMutability":"nonpayable"},{"type":"function","name":"transferOwnership","inputs":[{"name":"newOwner","type":"address","internalType":"address"}],"outputs":[],"stateMutability":"payable"},{"type":"event","name":"Approval","inputs":[{"name":"owner","type":"address","indexed":true,"internalType":"address"},{"name":"approved","type":"address","indexed":true,"internalType":"address"},{"name":"tokenId","type":"uint256","indexed":true,"internalType":"uint256"}],"anonymous":false},{"type":"event","name":"ApprovalForAll","inputs":[{"name":"owner","type":"address","indexed":true,"internalType":"address"},{"name":"operator","type":"address","indexed":true,"internalType":"address"},{"name":"approved","type":"bool","indexed":false,"internalType":"bool"}],"anonymous":false},{"type":"event","name":"BaseURISet","inputs":[{"name":"baseURI","type":"string","indexed":false,"internalType":"string"}],"anonymous":false},{"type":"event","name":"BaseURLSet","inputs":[{"name":"baseURL","type":"string","indexed":false,"internalType":"string"}],"anonymous":false},{"type":"event","name":"ChestOpened","inputs":[{"name":"player","type":"address","indexed":true,"internalType":"address"},{"name":"ethAmount","type":"uint256","indexed":false,"internalType":"uint256"}],"anonymous":false},{"type":"event","name":"GameDifficultySet","inputs":[{"name":"gameDifficulty","type":"uint256","indexed":false,"internalType":"uint256"}],"anonymous":false},{"type":"event","name":"GameReset","inputs":[],"anonymous":false},{"type":"event","name":"MintFeeSet","inputs":[{"name":"mintFee","type":"uint256","indexed":false,"internalType":"uint256"}],"anonymous":false},{"type":"event","name":"MintKeyEvent","inputs":[{"name":"to","type":"address","indexed":true,"internalType":"address"},{"name":"player","type":"address","indexed":true,"internalType":"address"},{"name":"tokenId","type":"uint256","indexed":false,"internalType":"uint256"},{"name":"keyId","type":"uint256","indexed":false,"internalType":"uint256"},{"name":"score","type":"uint256","indexed":false,"internalType":"uint256"}],"anonymous":false},{"type":"event","name":"OwnershipHandoverCanceled","inputs":[{"name":"pendingOwner","type":"address","indexed":true,"internalType":"address"}],"anonymous":false},{"type":"event","name":"OwnershipHandoverRequested","inputs":[{"name":"pendingOwner","type":"address","indexed":true,"internalType":"address"}],"anonymous":false},{"type":"event","name":"OwnershipTransferred","inputs":[{"name":"oldOwner","type":"address","indexed":true,"internalType":"address"},{"name":"newOwner","type":"address","indexed":true,"internalType":"address"}],"anonymous":false},{"type":"event","name":"ProtocolFeeDestinationSet","inputs":[{"name":"protocolFeeDestination","type":"address","indexed":false,"internalType":"address"}],"anonymous":false},{"type":"event","name":"RevealedSet","inputs":[{"name":"revealed","type":"bool","indexed":false,"internalType":"bool"}],"anonymous":false},{"type":"event","name":"SignerSet","inputs":[{"name":"oldSigner","type":"address","indexed":false,"internalType":"address"},{"name":"newSigner","type":"address","indexed":false,"internalType":"address"}],"anonymous":false},{"type":"event","name":"Transfer","inputs":[{"name":"from","type":"address","indexed":true,"internalType":"address"},{"name":"to","type":"address","indexed":true,"internalType":"address"},{"name":"tokenId","type":"uint256","indexed":true,"internalType":"uint256"}],"anonymous":false},{"type":"error","name":"AlreadyInitialized","inputs":[]},{"type":"error","name":"AlreadyMinted","inputs":[]},{"type":"error","name":"ERC721IncorrectOwner","inputs":[{"name":"sender","type":"address","internalType":"address"},{"name":"tokenId","type":"uint256","internalType":"uint256"},{"name":"owner","type":"address","internalType":"address"}]},{"type":"error","name":"ERC721InsufficientApproval","inputs":[{"name":"operator","type":"address","internalType":"address"},{"name":"tokenId","type":"uint256","internalType":"uint256"}]},{"type":"error","name":"ERC721InvalidApprover","inputs":[{"name":"approver","type":"address","internalType":"address"}]},{"type":"error","name":"ERC721InvalidOperator","inputs":[{"name":"operator","type":"address","internalType":"address"}]},{"type":"error","name":"ERC721InvalidOwner","inputs":[{"name":"owner","type":"address","internalType":"address"}]},{"type":"error","name":"ERC721InvalidReceiver","inputs":[{"name":"receiver","type":"address","internalType":"address"}]},{"type":"error","name":"ERC721InvalidSender","inputs":[{"name":"sender","type":"address","internalType":"address"}]},{"type":"error","name":"ERC721NonexistentToken","inputs":[{"name":"tokenId","type":"uint256","internalType":"uint256"}]},{"type":"error","name":"InvalidMintFee","inputs":[]},{"type":"error","name":"InvalidSignature","inputs":[]},{"type":"error","name":"NewOwnerIsZeroAddress","inputs":[]},{"type":"error","name":"NoHandoverRequest","inputs":[]},{"type":"error","name":"TokenDoesNotExist","inputs":[]},{"type":"error","name":"Unauthorized","inputs":[]}],"bytecode":{"object":"0x6101206040523480156200001257600080fd5b506040516200331d3803806200331d8339810160408190526200003591620002aa565b6040518060400160405280600a81526020016929b83432b932a8bab4bd60b11b8152506040518060400160405280600681526020016553504845524560d01b815250816000908162000088919062000389565b50600162000097828262000389565b505030608052504660a052606080620000f8604080518082018252601481527f5350484552452d5155495a204e4654204d494e54000000000000000000000000602080830191909152825180840190935260018352603160f81b9083015291565b815160209283012081519183019190912060c082905260e0819052604080517f8b73c3c69bb8fe3d512ecc4cf759cc79239f7b179b0ffacaa9a75d522b39400f8152938401929092529082015246606082015230608082015260a09020610100525062000167905082620001cc565b600780546001600160a01b038084166001600160a01b03199283161790925560088054928516929091169190911790556509184e72a000600f55600060135560016014556064601555610190601055620001c062000208565b60125550620004c69050565b6001600160a01b0316638b78c6d8198190558060007f8be0079c531659141344cd1fd0a4f28419497f9722a3daafe3b4186f6b6457e08180a350565b60138054600091826200021b836200046b565b909155505060155460135460408051602081019290925244908201524260608083019190915232901b6001600160601b03191660808201526094016040516020818303038152906040528051906020012060001c6200027b919062000487565b62000288906001620004aa565b905090565b80516001600160a01b0381168114620002a557600080fd5b919050565b60008060408385031215620002be57600080fd5b620002c9836200028d565b9150620002d9602084016200028d565b90509250929050565b634e487b7160e01b600052604160045260246000fd5b600181811c908216806200030d57607f821691505b6020821081036200032e57634e487b7160e01b600052602260045260246000fd5b50919050565b601f82111562000384576000816000526020600020601f850160051c810160208610156200035f5750805b601f850160051c820191505b8181101562000380578281556001016200036b565b5050505b505050565b81516001600160401b03811115620003a557620003a5620002e2565b620003bd81620003b68454620002f8565b8462000334565b602080601f831160018114620003f55760008415620003dc5750858301515b600019600386901b1c1916600185901b17855562000380565b600085815260208120601f198616915b82811015620004265788860151825594840194600190910190840162000405565b5085821015620004455787850151600019600388901b60f8161c191681555b5050505050600190811b01905550565b634e487b7160e01b600052601160045260246000fd5b60006001820162000480576200048062000455565b5060010190565b600082620004a557634e487b7160e01b600052601260045260246000fd5b500690565b80820180821115620004c057620004c062000455565b92915050565b60805160a05160c05160e05161010051612e126200050b600039600061169a015260006117540152600061172e015260006116de015260006116bb0152612e126000f3fe6080604052600436106103215760003560e01c80638da5cb5b116101a5578063c87b56dd116100ec578063eddd0d9c11610095578063f76fc35e1161006f578063f76fc35e14610901578063fb5276d414610935578063fec6c10314610955578063fee81cf4146109a757600080fd5b8063eddd0d9c146108bb578063f04e283e146108db578063f2fde38b146108ee57600080fd5b8063db92ee8b116100c6578063db92ee8b14610821578063e794558614610837578063e985e9c51461087257600080fd5b8063c87b56dd146107d5578063d221d8c0146107f5578063d40183771461080b57600080fd5b8063995c0c3d1161014e578063a22cb46511610128578063a22cb4651461077f578063a5f9b5c21461079f578063b88d4fde146107b557600080fd5b8063995c0c3d146107125780639c3570191461073f578063a10786b01461075f57600080fd5b806394d008ef1161017f57806394d008ef146106bd57806395d89b41146106d057806396910b91146106e557600080fd5b80638da5cb5b146106155780638f9f41141461064957806390b5d5411461066957600080fd5b806342842e0e116102695780636c19e78311610212578063789e2196116101ec578063789e2196146105925780637d00fa32146105a757806384b0196e146105ed57600080fd5b80636c19e7831461054a57806370a082311461056a578063715018a61461058a57600080fd5b806354d1f13d1161024357806354d1f13d146105025780636352211e1461050a5780636575f6aa1461052a57600080fd5b806342842e0e146104ac5780634b3e0509146104cc5780634ce7957c146104e257600080fd5b806313966db5116102cb57806323b872dd116102a557806323b872dd1461046e578063256929621461048e5780632fc7b6781461049657600080fd5b806313966db514610418578063158d32361461042e578063238ac9331461044e57600080fd5b8063081812fc116102fc578063081812fc146103a8578063095ea7b3146103e05780630ab14d8a1461040257600080fd5b80629a9b7b1461032d57806301ffc9a71461035657806306fdde031461038657600080fd5b3661032857005b600080fd5b34801561033957600080fd5b5061034360065481565b6040519081526020015b60405180910390f35b34801561036257600080fd5b50610376610371366004612436565b6109da565b604051901515815260200161034d565b34801561039257600080fd5b5061039b610abf565b60405161034d91906124c8565b3480156103b457600080fd5b506103c86103c33660046124db565b610b51565b6040516001600160a01b03909116815260200161034d565b3480156103ec57600080fd5b506104006103fb366004612510565b610b7a565b005b34801561040e57600080fd5b5061034360135481565b34801561042457600080fd5b50610343600f5481565b34801561043a57600080fd5b50610343610449366004612510565b610b89565b34801561045a57600080fd5b506007546103c8906001600160a01b031681565b34801561047a57600080fd5b5061040061048936600461253a565b610bba565b610400610c7c565b3480156104a257600080fd5b5061034361019081565b3480156104b857600080fd5b506104006104c736600461253a565b610ccc565b3480156104d857600080fd5b5061034360105481565b3480156104ee57600080fd5b506008546103c8906001600160a01b031681565b610400610cec565b34801561051657600080fd5b506103c86105253660046124db565b610d28565b34801561053657600080fd5b506103436105453660046124db565b610d33565b34801561055657600080fd5b50610400610565366004612576565b610d3e565b34801561057657600080fd5b50610343610585366004612576565b610dbf565b610400610e20565b34801561059e57600080fd5b50610343600a81565b3480156105b357600080fd5b506103766105c2366004612510565b6001600160a01b03919091166000908152600a60209081526040808320938352929052205460ff1690565b3480156105f957600080fd5b50610602610e34565b60405161034d97969594939291906125cd565b34801561062157600080fd5b507fffffffffffffffffffffffffffffffffffffffffffffffffffffffff74873927546103c8565b34801561065557600080fd5b506104006106643660046124db565b610edd565b34801561067557600080fd5b506106a8610684366004612510565b600b6020908152600092835260408084209091529082529020805460019091015482565b6040805192835260208301919091520161034d565b6104006106cb366004612657565b610f2c565b3480156106dc57600080fd5b5061039b6111fb565b3480156106f157600080fd5b50610705610700366004612576565b61120a565b60405161034d91906126de565b34801561071e57600080fd5b5061034361072d3660046124db565b600d6020526000908152604090205481565b34801561074b57600080fd5b506009546103c8906001600160a01b031681565b34801561076b57600080fd5b5061040061077a366004612576565b611276565b34801561078b57600080fd5b5061040061079a3660046126f1565b6112e4565b3480156107ab57600080fd5b5061034360145481565b3480156107c157600080fd5b506104006107d036600461275c565b6112ef565b3480156107e157600080fd5b5061039b6107f03660046124db565b611306565b34801561080157600080fd5b5061034360115481565b34801561081757600080fd5b5061034360125481565b34801561082d57600080fd5b5061034360155481565b34801561084357600080fd5b50610376610852366004612510565b600a60209081526000928352604080842090915290825290205460ff1681565b34801561087e57600080fd5b5061037661088d366004612856565b6001600160a01b03918216600090815260056020908152604080832093909416825291909152205460ff1690565b3480156108c757600080fd5b506104006108d63660046124db565b6113a8565b6104006108e9366004612576565b6113e5565b6104006108fc366004612576565b611425565b34801561090d57600080fd5b506103437fd7de69a61412b6b6704ac0d3f46a1a9620d84d890a1b328b46fa219e1fc73ee181565b34801561094157600080fd5b50610400610950366004612576565b61144c565b34801561096157600080fd5b506106a8610970366004612510565b6001600160a01b03919091166000908152600b60209081526040808320938352929052818120546014548252919020600101549091565b3480156109b357600080fd5b506103436109c2366004612576565b63389a75e1600c908152600091909152602090205490565b60007fffffffff0000000000000000000000000000000000000000000000000000000082167f80ac58cd000000000000000000000000000000000000000000000000000000001480610a6d57507fffffffff0000000000000000000000000000000000000000000000000000000082167f5b5e139f00000000000000000000000000000000000000000000000000000000145b80610ab957507f01ffc9a7000000000000000000000000000000000000000000000000000000007fffffffff000000000000000000000000000000000000000000000000000000008316145b92915050565b606060008054610ace90612889565b80601f0160208091040260200160405190810160405280929190818152602001828054610afa90612889565b8015610b475780601f10610b1c57610100808354040283529160200191610b47565b820191906000526020600020905b815481529060010190602001808311610b2a57829003601f168201915b5050505050905090565b6000610b5c8261150a565b506000828152600460205260409020546001600160a01b0316610ab9565b610b8582823361155c565b5050565b600c6020528160005260406000208181548110610ba557600080fd5b90600052602060002001600091509150505481565b6001600160a01b038216610c02576040517f64a0ae92000000000000000000000000000000000000000000000000000000008152600060048201526024015b60405180910390fd5b6000610c0f838333611569565b9050836001600160a01b0316816001600160a01b031614610c76576040517f64283d7b0000000000000000000000000000000000000000000000000000000081526001600160a01b0380861660048301526024820184905282166044820152606401610bf9565b50505050565b60006202a30067ffffffffffffffff164201905063389a75e1600c5233600052806020600c2055337fdbf36a107da19e49527a7176a1babf963b4b0ff8cde35ee35d6cd8f1f9ac7e1d600080a250565b610ce7838383604051806020016040528060008152506112ef565b505050565b63389a75e1600c523360005260006020600c2055337ffa7b8eab7da67f412cc9575ed43464468f9bfbae89d1675917346ca6d8fe3c92600080a2565b6000610ab98261150a565b6000610ab982611698565b610d466117b0565b600780546001600160a01b038381167fffffffffffffffffffffffff000000000000000000000000000000000000000083168117909355604080519190921680825260208201939093527fb0604c365feafa080c833b6f6814d321a7561528e696ac2a112c2a0231b0ed35910160405180910390a15050565b60006001600160a01b038216610e04576040517f89c62b6400000000000000000000000000000000000000000000000000000000815260006004820152602401610bf9565b506001600160a01b031660009081526003602052604090205490565b610e286117b0565b610e3260006117e6565b565b7f0f000000000000000000000000000000000000000000000000000000000000006060806000808083610ecb604080518082018252601481527f5350484552452d5155495a204e4654204d494e540000000000000000000000006020808301919091528251808401909352600183527f31000000000000000000000000000000000000000000000000000000000000009083015291565b97989097965046955030945091925090565b610ee56117b0565b6015819055610ef261183f565b6012556040518181527fdbd7f72f4264f76c975f26d49a8db99ec261e10e9133f699d651f19f30fb98f1906020015b60405180910390a150565b610f38848484846118d6565b610f6e576040517f8baa579f00000000000000000000000000000000000000000000000000000000815260040160405180910390fd5b600f54341015610faa576040517fc288bf8f00000000000000000000000000000000000000000000000000000000815260040160405180910390fd5b600e8282604051610fbc9291906128dc565b90815260408051602092819003830190206014546000908152925290205460ff1615611014576040517f8baa579f00000000000000000000000000000000000000000000000000000000815260040160405180910390fd5b6001600160a01b0384166000818152600a6020818152604080842060148054865290835281852080547fffffffffffffffffffffffffffffffffffffffffffffffffffffffffffffff00166001908117909155825180840184528a815242818601908152978752600b85528387209254875291909352908420905181559351930192909255601080549091906110ab90849061291b565b9091555050600980547fffffffffffffffffffffffff0000000000000000000000000000000000000000166001600160a01b038616179055601180543491906000906110f890849061291b565b909155506000905061110985611966565b6001600160a01b0386166000818152600c60209081526040808320805460018101825590845282842001859055600680548452600d835292819020859055915482519081529081018490529081018790529192509081907f43d0c3b34def159d727f106ea36701b24391b26b27cdbaea3a13f0da846a9e509060600160405180910390a36001600e84846040516111a19291906128dc565b908152604080516020928190038301902060145460009081529252902080547fffffffffffffffffffffffffffffffffffffffffffffffffffffffffffffff00169115159190911790556111f48561144c565b5050505050565b606060018054610ace90612889565b6001600160a01b0381166000908152600c602090815260409182902080548351818402810184019094528084526060939283018282801561126a57602002820191906000526020600020905b815481526020019060010190808311611256575b50505050509050919050565b61127e6117b0565b600880547fffffffffffffffffffffffff0000000000000000000000000000000000000000166001600160a01b0383169081179091556040519081527f262538484f9e0f43acdcef80a543c1aecfc0b210b993fd3d09bd77ee95b9d34490602001610f21565b610b8533838361197c565b6112fa848484610bba565b610c7684848484611a52565b6000818152600d60205260408120546060919061132290611c0e565b9050600081604051602001611337919061294a565b604051602081830303815290604052905060008261135483611c70565b604051602001611365929190612b9f565b604051602081830303815290604052905061137f81611c70565b60405160200161138f9190612c96565b6040516020818303038152906040529350505050919050565b6113b06117b0565b600f8190556040518181527f97aee230ba41961438e908e115df76fa8113f85a0586d85b19ba5be50e6a227490602001610f21565b6113ed6117b0565b63389a75e1600c52806000526020600c20805442111561141557636f5e88186000526004601cfd5b60009055611422816117e6565b50565b61142d6117b0565b8060601b61144357637448fbae6000526004601cfd5b611422816117e6565b61145581611c7e565b156114f4576000600a60115461146b9190612d0a565b905060008160115461147d9190612d1e565b600854909150611496906001600160a01b031683611d2c565b6114a96001600160a01b03841682611d2c565b826001600160a01b03167fb5d3a20278dcec496e4b0d565c9b0189c3900d13410e23b2b22ee83016a3fcf8826040516114e491815260200190565b60405180910390a2610ce7611d48565b60066000815461150390612d31565b9091555050565b6000818152600260205260408120546001600160a01b031680610ab9576040517f7e27328900000000000000000000000000000000000000000000000000000000815260048101849052602401610bf9565b610ce78383836001611e28565b6000828152600260205260408120546001600160a01b039081169083161561159657611596818486611f7e565b6001600160a01b038116156115f2576115b3600085600080611e28565b6001600160a01b038116600090815260036020526040902080547fffffffffffffffffffffffffffffffffffffffffffffffffffffffffffffffff0190555b6001600160a01b03851615611621576001600160a01b0385166000908152600360205260409020805460010190555b60008481526002602052604080822080547fffffffffffffffffffffffff0000000000000000000000000000000000000000166001600160a01b0389811691821790925591518793918516917fddf252ad1be2c89b69c2b068fc378daa952ba7f163c4a11628f55a4df523b3ef91a4949350505050565b7f00000000000000000000000000000000000000000000000000000000000000007f000000000000000000000000000000000000000000000000000000000000000030147f000000000000000000000000000000000000000000000000000000000000000046141661178b5750604080517f8b73c3c69bb8fe3d512ecc4cf759cc79239f7b179b0ffacaa9a75d522b39400f81527f000000000000000000000000000000000000000000000000000000000000000060208201527f00000000000000000000000000000000000000000000000000000000000000009181019190915246606082015230608082015260a090205b67190100000000000060005280601a5281603a52604260182090506000603a52919050565b7fffffffffffffffffffffffffffffffffffffffffffffffffffffffff74873927543314610e32576382b429006000526004601cfd5b7fffffffffffffffffffffffffffffffffffffffffffffffffffffffff7487392780546001600160a01b039092169182907f8be0079c531659141344cd1fd0a4f28419497f9722a3daafe3b4186f6b6457e0600080a355565b601380546000918261185083612d31565b909155505060155460135460408051602081019290925244908201524260608083019190915232901b7fffffffffffffffffffffffffffffffffffffffff0000000000000000000000001660808201526094016040516020818303038152906040528051906020012060001c6118c69190612d69565b6118d190600161291b565b905090565b604080517fd7de69a61412b6b6704ac0d3f46a1a9620d84d890a1b328b46fa219e1fc73ee160208201526001600160a01b0386169181019190915260608101849052600090819061193f9060800160405160208183030381529060405280519060200120611698565b60075490915061195a906001600160a01b0316828686612014565b9150505b949350505050565b600061197482600654612126565b610ab961183f565b6001600160a01b0382166119c7576040517f5b08ba180000000000000000000000000000000000000000000000000000000081526001600160a01b0383166004820152602401610bf9565b6001600160a01b0383811660008181526005602090815260408083209487168084529482529182902080547fffffffffffffffffffffffffffffffffffffffffffffffffffffffffffffff001686151590811790915591519182527f17307eab39ab6107e8899845ad3d59bd9653f200f220920489ca2b5937696c31910160405180910390a3505050565b6001600160a01b0383163b15610c76576040517f150b7a020000000000000000000000000000000000000000000000000000000081526001600160a01b0384169063150b7a0290611aad903390889087908790600401612d7d565b6020604051808303816000875af1925050508015611b06575060408051601f3d9081017fffffffffffffffffffffffffffffffffffffffffffffffffffffffffffffffe0168201909252611b0391810190612db9565b60015b611b88573d808015611b34576040519150601f19603f3d011682016040523d82523d6000602084013e611b39565b606091505b508051600003611b80576040517f64a0ae920000000000000000000000000000000000000000000000000000000081526001600160a01b0385166004820152602401610bf9565b805181602001fd5b7fffffffff0000000000000000000000000000000000000000000000000000000081167f150b7a0200000000000000000000000000000000000000000000000000000000146111f4576040517f64a0ae920000000000000000000000000000000000000000000000000000000081526001600160a01b0385166004820152602401610bf9565b60606080604051019050602081016040526000815280600019835b928101926030600a8206018453600a900480611c295750508190037fffffffffffffffffffffffffffffffffffffffffffffffffffffffffffffffe0909101908152919050565b6060610ab982600080612140565b6001600160a01b0381166000908152600c6020908152604080832080548251818502810185019093528083528493830182828015611cdb57602002820191906000526020600020905b815481526020019060010190808311611cc7575b5050505050905060005b8151811015611d2257601254828281518110611d0357611d03612dd6565b602002602001015103611d1a575060019392505050565b600101611ce5565b5060009392505050565b60003860003884865af1610b855763b12d13eb6000526004601cfd5b61019060105560005b6006548111611da4576000611d6582610d28565b9050611d7082612251565b6001600160a01b0381166000908152600c60205260408120611d91916123d6565b5080611d9c81612d31565b915050611d51565b5060005b6006548111611dd2576000818152600d602052604081205580611dca81612d31565b915050611da8565b50611ddb61183f565b6012556000601181905560068190556014805491611df883612d31565b90915550506040517fc6976b6410888b44c765590c8368eb4a60e0431d4ad683c8a53ea85a8479f22e90600090a1565b8080611e3c57506001600160a01b03821615155b15611f36576000611e4c8461150a565b90506001600160a01b03831615801590611e785750826001600160a01b0316816001600160a01b031614155b8015611eaa57506001600160a01b0380821660009081526005602090815260408083209387168352929052205460ff16155b15611eec576040517fa9fbf51f0000000000000000000000000000000000000000000000000000000081526001600160a01b0384166004820152602401610bf9565b8115611f345783856001600160a01b0316826001600160a01b03167f8c5be1e5ebec7d5bd14f71427d1e84f3dd0314c0f7b2291e5b200ac8c7c3b92560405160405180910390a45b505b5050600090815260046020526040902080547fffffffffffffffffffffffff0000000000000000000000000000000000000000166001600160a01b0392909216919091179055565b611f898383836122a5565b610ce7576001600160a01b038316611fd0576040517f7e27328900000000000000000000000000000000000000000000000000000000815260048101829052602401610bf9565b6040517f177e802f0000000000000000000000000000000000000000000000000000000081526001600160a01b038316600482015260248101829052604401610bf9565b6001600160a01b03909316926000841561195e5760405184600052604083036120985760208481013560ff81901c601b01825285356040527f7fffffffffffffffffffffffffffffffffffffffffffffffffffffffffffffff16606052600160806000825afa805187183d15176120965750600060605260405250600161195e565b505b604183036120db57604084013560001a602052604084604037602060016080600060015afa805187183d15176120d95750600060605260405250600161195e565b505b600060605280604052631626ba7e60e01b80825285600483015260248201604081528460448401528486606485013760208160648701858b5afa905190911416915050949350505050565b610b85828260405180602001604052806000815250612328565b606083518015612249576003600282010460021b60405192507f4142434445464748494a4b4c4d4e4f505152535455565758595a616263646566601f526106708515027f6768696a6b6c6d6e6f707172737475767778797a303132333435363738392d5f18603f52602083018181018388602001018051600082525b60038a0199508951603f8160121c1651600053603f81600c1c1651600153603f8160061c1651600253603f8116516003535060005184526004840193508284106121bc5790526020016040527f3d3d000000000000000000000000000000000000000000000000000000000000600384066002048083039190915260008615159091029182900352900382525b509392505050565b60006122606000836000611569565b90506001600160a01b038116610b85576040517f7e27328900000000000000000000000000000000000000000000000000000000815260048101839052602401610bf9565b60006001600160a01b0383161580159061195e5750826001600160a01b0316846001600160a01b031614806122ff57506001600160a01b0380851660009081526005602090815260408083209387168352929052205460ff165b8061195e5750506000908152600460205260409020546001600160a01b03908116911614919050565b612332838361233f565b610ce76000848484611a52565b6001600160a01b038216612382576040517f64a0ae9200000000000000000000000000000000000000000000000000000000815260006004820152602401610bf9565b600061239083836000611569565b90506001600160a01b03811615610ce7576040517f73c6ac6e00000000000000000000000000000000000000000000000000000000815260006004820152602401610bf9565b508054600082559060005260206000209081019061142291905b8082111561240457600081556001016123f0565b5090565b7fffffffff000000000000000000000000000000000000000000000000000000008116811461142257600080fd5b60006020828403121561244857600080fd5b813561245381612408565b9392505050565b60005b8381101561247557818101518382015260200161245d565b50506000910152565b6000815180845261249681602086016020860161245a565b601f017fffffffffffffffffffffffffffffffffffffffffffffffffffffffffffffffe0169290920160200192915050565b602081526000612453602083018461247e565b6000602082840312156124ed57600080fd5b5035919050565b80356001600160a01b038116811461250b57600080fd5b919050565b6000806040838503121561252357600080fd5b61252c836124f4565b946020939093013593505050565b60008060006060848603121561254f57600080fd5b612558846124f4565b9250612566602085016124f4565b9150604084013590509250925092565b60006020828403121561258857600080fd5b612453826124f4565b60008151808452602080850194506020840160005b838110156125c2578151875295820195908201906001016125a6565b509495945050505050565b7fff000000000000000000000000000000000000000000000000000000000000008816815260e06020820152600061260860e083018961247e565b828103604084015261261a818961247e565b90508660608401526001600160a01b03861660808401528460a084015282810360c08401526126498185612591565b9a9950505050505050505050565b6000806000806060858703121561266d57600080fd5b612676856124f4565b935060208501359250604085013567ffffffffffffffff8082111561269a57600080fd5b818701915087601f8301126126ae57600080fd5b8135818111156126bd57600080fd5b8860208285010111156126cf57600080fd5b95989497505060200194505050565b6020815260006124536020830184612591565b6000806040838503121561270457600080fd5b61270d836124f4565b91506020830135801515811461272257600080fd5b809150509250929050565b7f4e487b7100000000000000000000000000000000000000000000000000000000600052604160045260246000fd5b6000806000806080858703121561277257600080fd5b61277b856124f4565b9350612789602086016124f4565b925060408501359150606085013567ffffffffffffffff808211156127ad57600080fd5b818701915087601f8301126127c157600080fd5b8135818111156127d3576127d361272d565b604051601f82017fffffffffffffffffffffffffffffffffffffffffffffffffffffffffffffffe0908116603f011681019083821181831017156128195761281961272d565b816040528281528a602084870101111561283257600080fd5b82602086016020830137600060208483010152809550505050505092959194509250565b6000806040838503121561286957600080fd5b612872836124f4565b9150612880602084016124f4565b90509250929050565b600181811c9082168061289d57607f821691505b6020821081036128d6577f4e487b7100000000000000000000000000000000000000000000000000000000600052602260045260246000fd5b50919050565b8183823760009101908152919050565b7f4e487b7100000000000000000000000000000000000000000000000000000000600052601160045260246000fd5b80820180821115610ab957610ab96128ec565b6000815161294081856020860161245a565b9290920192915050565b7f3c73766720786d6c6e733d22687474703a2f2f7777772e77332e6f72672f323081527f30302f73766722207072657365727665417370656374526174696f3d22784d6960208201527f6e594d696e206d656574222076696577426f783d22302030203335302033353060408201527f223e00000000000000000000000000000000000000000000000000000000000060608201527f3c7374796c653e2e62617365207b2066696c6c3a2077686974653b20666f6e7460628201527f2d66616d696c793a2073657269663b20666f6e742d73697a653a20323470783b60828201527f207d3c2f7374796c653e0000000000000000000000000000000000000000000060a28201527f3c726563742077696474683d223130302522206865696768743d22313030252260ac8201527f2066696c6c3d22626c61636b22202f3e0000000000000000000000000000000060cc8201527f3c7465787420783d223530252220793d223530252220636c6173733d2262617360dc8201527f652220646f6d696e616e742d626173656c696e653d226d6964646c652220746560fc8201527f78742d616e63686f723d226d6964646c65223e0000000000000000000000000061011c8201527f4b6579202300000000000000000000000000000000000000000000000000000061012f8201526000612453612b76612b4d61013485018661292e565b7f3c2f746578743e00000000000000000000000000000000000000000000000000815260070190565b7f3c2f7376673e0000000000000000000000000000000000000000000000000000815260060190565b7f7b226e616d65223a20224b657920230000000000000000000000000000000000815260008351612bd781600f85016020880161245a565b7f222c20226465736372697074696f6e223a2022412073696d706c65206b657920600f918401918201527f776974682061206e756d6265722e222c2022696d616765223a2022646174613a602f8201527f696d6167652f7376672b786d6c3b6261736536342c0000000000000000000000604f8201528351612c6081606484016020880161245a565b7f227d00000000000000000000000000000000000000000000000000000000000060649290910191820152606601949350505050565b7f646174613a6170706c69636174696f6e2f6a736f6e3b6261736536342c000000815260008251612cce81601d85016020870161245a565b91909101601d0192915050565b7f4e487b7100000000000000000000000000000000000000000000000000000000600052601260045260246000fd5b600082612d1957612d19612cdb565b500490565b81810381811115610ab957610ab96128ec565b60007fffffffffffffffffffffffffffffffffffffffffffffffffffffffffffffffff8203612d6257612d626128ec565b5060010190565b600082612d7857612d78612cdb565b500690565b60006001600160a01b03808716835280861660208401525083604083015260806060830152612daf608083018461247e565b9695505050505050565b600060208284031215612dcb57600080fd5b815161245381612408565b7f4e487b7100000000000000000000000000000000000000000000000000000000600052603260045260246000fdfea164736f6c6343000817000a","linkReferences":{}},"methodIdentifiers":{"HP_INCREMENT_PER_MINT()":"789e2196","INITIAL_BOSS_HP()":"2fc7b678","MINT_TYPEHASH()":"f76fc35e","accumulatedETH()":"d221d8c0","approve(address,uint256)":"095ea7b3","balanceOf(address)":"70a08231","bossHP()":"4b3e0509","cancelOwnershipHandover()":"54d1f13d","chestKey()":"d4018377","chestOwner()":"9c357019","cleared(address,uint256)":"e7945586","completeOwnershipHandover(address)":"f04e283e","currentTokenId()":"009a9b7b","eip712Domain()":"84b0196e","gameCleared(address,uint256)":"7d00fa32","gameDifficulty()":"db92ee8b","gameRound()":"a5f9b5c2","getApproved(uint256)":"081812fc","getPlayerKeys(address)":"96910b91","getScoreData(address,uint256)":"fec6c103","hashTypedData(bytes32)":"6575f6aa","isApprovedForAll(address,address)":"e985e9c5","mint(address,uint256,bytes)":"94d008ef","mintFee()":"13966db5","name()":"06fdde03","openChest(address)":"fb5276d4","owner()":"8da5cb5b","ownerOf(uint256)":"6352211e","ownershipHandoverExpiresAt(address)":"fee81cf4","playerKeys(address,uint256)":"158d3236","protocolFeeDestination()":"4ce7957c","randomId()":"0ab14d8a","renounceOwnership()":"715018a6","requestOwnershipHandover()":"25692962","safeTransferFrom(address,address,uint256)":"42842e0e","safeTransferFrom(address,address,uint256,bytes)":"b88d4fde","scoreData(address,uint256)":"90b5d541","setApprovalForAll(address,bool)":"a22cb465","setGameDifficulty(uint256)":"8f9f4114","setMintFee(uint256)":"eddd0d9c","setProtocolFeeDestination(address)":"a10786b0","setSigner(address)":"6c19e783","signer()":"238ac933","supportsInterface(bytes4)":"01ffc9a7","symbol()":"95d89b41","tokenIdtoKey(uint256)":"995c0c3d","tokenURI(uint256)":"c87b56dd","transferFrom(address,address,uint256)":"23b872dd","transferOwnership(address)":"f2fde38b"},"storageLayout":{"storage":[{"astId":2841,"contract":"src/SphereQuizGameNFT.sol:SphereQuizGameNFT","label":"_name","offset":0,"slot":"0","type":"t_string_storage"},{"astId":2843,"contract":"src/SphereQuizGameNFT.sol:SphereQuizGameNFT","label":"_symbol","offset":0,"slot":"1","type":"t_string_storage"},{"astId":2847,"contract":"src/SphereQuizGameNFT.sol:SphereQuizGameNFT","label":"_owners","offset":0,"slot":"2","type":"t_mapping(t_uint256,t_address)"},{"astId":2851,"contract":"src/SphereQuizGameNFT.sol:SphereQuizGameNFT","label":"_balances","offset":0,"slot":"3","type":"t_mapping(t_address,t_uint256)"},{"astId":2855,"contract":"src/SphereQuizGameNFT.sol:SphereQuizGameNFT","label":"_tokenApprovals","offset":0,"slot":"4","type":"t_mapping(t_uint256,t_address)"},{"astId":2861,"contract":"src/SphereQuizGameNFT.sol:SphereQuizGameNFT","label":"_operatorApprovals","offset":0,"slot":"5","type":"t_mapping(t_address,t_mapping(t_address,t_bool))"},{"astId":55962,"contract":"src/SphereQuizGameNFT.sol:SphereQuizGameNFT","label":"currentTokenId","offset":0,"slot":"6","type":"t_uint256"},{"astId":55964,"contract":"src/SphereQuizGameNFT.sol:SphereQuizGameNFT","label":"signer","offset":0,"slot":"7","type":"t_address"},{"astId":55966,"contract":"src/SphereQuizGameNFT.sol:SphereQuizGameNFT","label":"protocolFeeDestination","offset":0,"slot":"8","type":"t_address"},{"astId":55968,"contract":"src/SphereQuizGameNFT.sol:SphereQuizGameNFT","label":"chestOwner","offset":0,"slot":"9","type":"t_address"},{"astId":55974,"contract":"src/SphereQuizGameNFT.sol:SphereQuizGameNFT","label":"cleared","offset":0,"slot":"10","type":"t_mapping(t_address,t_mapping(t_uint256,t_bool))"},{"astId":55981,"contract":"src/SphereQuizGameNFT.sol:SphereQuizGameNFT","label":"scoreData","offset":0,"slot":"11","type":"t_mapping(t_address,t_mapping(t_uint256,t_struct(ScoreData)56015_storage))"},{"astId":55986,"contract":"src/SphereQuizGameNFT.sol:SphereQuizGameNFT","label":"playerKeys","offset":0,"slot":"12","type":"t_mapping(t_address,t_array(t_uint256)dyn_storage)"},{"astId":55990,"contract":"src/SphereQuizGameNFT.sol:SphereQuizGameNFT","label":"tokenIdtoKey","offset":0,"slot":"13","type":"t_mapping(t_uint256,t_uint256)"},{"astId":55996,"contract":"src/SphereQuizGameNFT.sol:SphereQuizGameNFT","label":"usedSignatures","offset":0,"slot":"14","type":"t_mapping(t_bytes_memory_ptr,t_mapping(t_uint256,t_bool))"},{"astId":55998,"contract":"src/SphereQuizGameNFT.sol:SphereQuizGameNFT","label":"mintFee","offset":0,"slot":"15","type":"t_uint256"},{"astId":56000,"contract":"src/SphereQuizGameNFT.sol:SphereQuizGameNFT","label":"bossHP","offset":0,"slot":"16","type":"t_uint256"},{"astId":56002,"contract":"src/SphereQuizGameNFT.sol:SphereQuizGameNFT","label":"accumulatedETH","offset":0,"slot":"17","type":"t_uint256"},{"astId":56004,"contract":"src/SphereQuizGameNFT.sol:SphereQuizGameNFT","label":"chestKey","offset":0,"slot":"18","type":"t_uint256"},{"astId":56006,"contract":"src/SphereQuizGameNFT.sol:SphereQuizGameNFT","label":"randomId","offset":0,"slot":"19","type":"t_uint256"},{"astId":56008,"contract":"src/SphereQuizGameNFT.sol:SphereQuizGameNFT","label":"gameRound","offset":0,"slot":"20","type":"t_uint256"},{"astId":56010,"contract":"src/SphereQuizGameNFT.sol:SphereQuizGameNFT","label":"gameDifficulty","offset":0,"slot":"21","type":"t_uint256"}],"types":{"t_address":{"encoding":"inplace","label":"address","numberOfBytes":"20"},"t_array(t_uint256)dyn_storage":{"encoding":"dynamic_array","label":"uint256[]","numberOfBytes":"32","base":"t_uint256"},"t_bool":{"encoding":"inplace","label":"bool","numberOfBytes":"1"},"t_bytes_memory_ptr":{"encoding":"bytes","label":"bytes","numberOfBytes":"32"},"t_mapping(t_address,t_array(t_uint256)dyn_storage)":{"encoding":"mapping","key":"t_address","label":"mapping(address => uint256[])","numberOfBytes":"32","value":"t_array(t_uint256)dyn_storage"},"t_mapping(t_address,t_bool)":{"encoding":"mapping","key":"t_address","label":"mapping(address => bool)","numberOfBytes":"32","value":"t_bool"},"t_mapping(t_address,t_mapping(t_address,t_bool))":{"encoding":"mapping","key":"t_address","label":"mapping(address => mapping(address => bool))","numberOfBytes":"32","value":"t_mapping(t_address,t_bool)"},"t_mapping(t_address,t_mapping(t_uint256,t_bool))":{"encoding":"mapping","key":"t_address","label":"mapping(address => mapping(uint256 => bool))","numberOfBytes":"32","value":"t_mapping(t_uint256,t_bool)"},"t_mapping(t_address,t_mapping(t_uint256,t_struct(ScoreData)56015_storage))":{"encoding":"mapping","key":"t_address","label":"mapping(address => mapping(uint256 => struct SphereQuizGameNFT.ScoreData))","numberOfBytes":"32","value":"t_mapping(t_uint256,t_struct(ScoreData)56015_storage)"},"t_mapping(t_address,t_uint256)":{"encoding":"mapping","key":"t_address","label":"mapping(address => uint256)","numberOfBytes":"32","value":"t_uint256"},"t_mapping(t_bytes_memory_ptr,t_mapping(t_uint256,t_bool))":{"encoding":"mapping","key":"t_bytes_memory_ptr","label":"mapping(bytes => mapping(uint256 => bool))","numberOfBytes":"32","value":"t_mapping(t_uint256,t_bool)"},"t_mapping(t_uint256,t_address)":{"encoding":"mapping","key":"t_uint256","label":"mapping(uint256 => address)","numberOfBytes":"32","value":"t_address"},"t_mapping(t_uint256,t_bool)":{"encoding":"mapping","key":"t_uint256","label":"mapping(uint256 => bool)","numberOfBytes":"32","value":"t_bool"},"t_mapping(t_uint256,t_struct(ScoreData)56015_storage)":{"encoding":"mapping","key":"t_uint256","label":"mapping(uint256 => struct SphereQuizGameNFT.ScoreData)","numberOfBytes":"32","value":"t_struct(ScoreData)56015_storage"},"t_mapping(t_uint256,t_uint256)":{"encoding":"mapping","key":"t_uint256","label":"mapping(uint256 => uint256)","numberOfBytes":"32","value":"t_uint256"},"t_string_storage":{"encoding":"bytes","label":"string","numberOfBytes":"32"},"t_struct(ScoreData)56015_storage":{"encoding":"inplace","label":"struct SphereQuizGameNFT.ScoreData","numberOfBytes":"64","members":[{"astId":56012,"contract":"src/SphereQuizGameNFT.sol:SphereQuizGameNFT","label":"score","offset":0,"slot":"0","type":"t_uint256"},{"astId":56014,"contract":"src/SphereQuizGameNFT.sol:SphereQuizGameNFT","label":"timestamp","offset":0,"slot":"1","type":"t_uint256"}]},"t_uint256":{"encoding":"inplace","label":"uint256","numberOfBytes":"32"}}},"id":60}